{
  "address": "0x48221309da69124a5B81C18AE3E10a975c728FF7",
  "abi": [
    {
      "inputs": [
        {
          "internalType": "uint256",
          "name": "initialSupply",
          "type": "uint256"
        },
        {
          "internalType": "string",
          "name": "tokenName",
          "type": "string"
        },
        {
          "internalType": "string",
          "name": "tokenSymbol",
          "type": "string"
        }
      ],
      "stateMutability": "nonpayable",
      "type": "constructor"
    },
    {
      "inputs": [],
      "name": "TokenERC20__NotEnoughAllowance",
      "type": "error"
    },
    {
      "inputs": [],
      "name": "TokenERC20__NotEnoughTokens",
      "type": "error"
    },
    {
      "inputs": [],
      "name": "TokenERC20__NotOwner",
      "type": "error"
    },
    {
      "inputs": [],
      "name": "TokenERC20__ZeroAddressNotAllowed",
      "type": "error"
    },
    {
      "anonymous": false,
      "inputs": [
        {
          "indexed": false,
          "internalType": "uint256",
          "name": "value",
          "type": "uint256"
        },
        {
          "indexed": true,
          "internalType": "address",
          "name": "from",
          "type": "address"
        },
        {
          "indexed": true,
          "internalType": "address",
          "name": "to",
          "type": "address"
        }
      ],
      "name": "Approval",
      "type": "event"
    },
    {
      "anonymous": false,
      "inputs": [
        {
          "indexed": true,
          "internalType": "address",
          "name": "from",
          "type": "address"
        },
        {
          "indexed": false,
          "internalType": "uint256",
          "name": "value",
          "type": "uint256"
        }
      ],
      "name": "Burn",
      "type": "event"
    },
    {
      "anonymous": false,
      "inputs": [
        {
          "indexed": false,
          "internalType": "address",
          "name": "oldOwner",
          "type": "address"
        },
        {
          "indexed": false,
          "internalType": "address",
          "name": "newOwner",
          "type": "address"
        }
      ],
      "name": "OwnershipTransferred",
      "type": "event"
    },
    {
      "anonymous": false,
      "inputs": [
        {
          "indexed": false,
          "internalType": "uint256",
          "name": "value",
          "type": "uint256"
        },
        {
          "indexed": true,
          "internalType": "address",
          "name": "from",
          "type": "address"
        },
        {
          "indexed": true,
          "internalType": "address",
          "name": "to",
          "type": "address"
        }
      ],
      "name": "Transfer",
      "type": "event"
    },
    {
      "inputs": [],
      "name": "abandonOwnership",
      "outputs": [
        {
          "internalType": "bool",
          "name": "success",
          "type": "bool"
        }
      ],
      "stateMutability": "nonpayable",
      "type": "function"
    },
    {
      "inputs": [
        {
          "internalType": "address",
          "name": "",
          "type": "address"
        },
        {
          "internalType": "address",
          "name": "",
          "type": "address"
        }
      ],
      "name": "allowance",
      "outputs": [
        {
          "internalType": "uint256",
          "name": "",
          "type": "uint256"
        }
      ],
      "stateMutability": "view",
      "type": "function"
    },
    {
      "inputs": [
        {
          "internalType": "uint256",
          "name": "_value",
          "type": "uint256"
        },
        {
          "internalType": "address",
          "name": "_spender",
          "type": "address"
        }
      ],
      "name": "approve",
      "outputs": [
        {
          "internalType": "bool",
          "name": "success",
          "type": "bool"
        }
      ],
      "stateMutability": "nonpayable",
      "type": "function"
    },
    {
      "inputs": [
        {
          "internalType": "address",
          "name": "",
          "type": "address"
        }
      ],
      "name": "balanceOf",
      "outputs": [
        {
          "internalType": "uint256",
          "name": "",
          "type": "uint256"
        }
      ],
      "stateMutability": "view",
      "type": "function"
    },
    {
      "inputs": [
        {
          "internalType": "uint256",
          "name": "_value",
          "type": "uint256"
        }
      ],
      "name": "burn",
      "outputs": [
        {
          "internalType": "bool",
          "name": "success",
          "type": "bool"
        }
      ],
      "stateMutability": "nonpayable",
      "type": "function"
    },
    {
      "inputs": [
        {
          "internalType": "address",
          "name": "_from",
          "type": "address"
        },
        {
          "internalType": "uint256",
          "name": "_value",
          "type": "uint256"
        }
      ],
      "name": "burnFrom",
      "outputs": [
        {
          "internalType": "bool",
          "name": "success",
          "type": "bool"
        }
      ],
      "stateMutability": "nonpayable",
      "type": "function"
    },
    {
      "inputs": [
        {
          "internalType": "address",
          "name": "newOwner",
          "type": "address"
        }
      ],
      "name": "changeOwnership",
      "outputs": [
        {
          "internalType": "bool",
          "name": "success",
          "type": "bool"
        }
      ],
      "stateMutability": "nonpayable",
      "type": "function"
    },
    {
      "inputs": [],
      "name": "decimals",
      "outputs": [
        {
          "internalType": "uint8",
          "name": "",
          "type": "uint8"
        }
      ],
      "stateMutability": "view",
      "type": "function"
    },
    {
      "inputs": [],
      "name": "name",
      "outputs": [
        {
          "internalType": "string",
          "name": "",
          "type": "string"
        }
      ],
      "stateMutability": "view",
      "type": "function"
    },
    {
      "inputs": [],
      "name": "owner",
      "outputs": [
        {
          "internalType": "address",
          "name": "",
          "type": "address"
        }
      ],
      "stateMutability": "view",
      "type": "function"
    },
    {
      "inputs": [],
      "name": "symbol",
      "outputs": [
        {
          "internalType": "string",
          "name": "",
          "type": "string"
        }
      ],
      "stateMutability": "view",
      "type": "function"
    },
    {
      "inputs": [],
      "name": "totalSupply",
      "outputs": [
        {
          "internalType": "uint256",
          "name": "",
          "type": "uint256"
        }
      ],
      "stateMutability": "view",
      "type": "function"
    },
    {
      "inputs": [
        {
          "internalType": "uint256",
          "name": "_value",
          "type": "uint256"
        },
        {
          "internalType": "address",
          "name": "_to",
          "type": "address"
        }
      ],
      "name": "transfer",
      "outputs": [
        {
          "internalType": "bool",
          "name": "success",
          "type": "bool"
        }
      ],
      "stateMutability": "nonpayable",
      "type": "function"
    },
    {
      "inputs": [
        {
          "internalType": "uint256",
          "name": "_value",
          "type": "uint256"
        },
        {
          "internalType": "address",
          "name": "_from",
          "type": "address"
        },
        {
          "internalType": "address",
          "name": "_to",
          "type": "address"
        }
      ],
      "name": "transferFrom",
      "outputs": [
        {
          "internalType": "bool",
          "name": "success",
          "type": "bool"
        }
      ],
      "stateMutability": "nonpayable",
      "type": "function"
    }
  ],
  "transactionHash": "0x70bf75c512f3f08bc64981138fe45c780ce84119000d8063123ae2c93b32c4f1",
  "args": [
    20,
    "Trinh Token",
    "TT"
  ],
  "numDeployments": 1,
  "solcInputHash": "04847cb4996547cf9297fabd0235cc9f",
  "bytecode": "0x60806040526012600260006101000a81548160ff021916908360ff1602179055503480156200002d57600080fd5b5060405162001e6138038062001e61833981810160405281019062000053919062000309565b600260009054906101000a900460ff1660ff16600a62000074919062000526565b8362000081919062000577565b600381905550600354600560003373ffffffffffffffffffffffffffffffffffffffff1673ffffffffffffffffffffffffffffffffffffffff168152602001908152602001600020819055508160009081620000de919062000803565b508060019081620000f0919062000803565b5033600460006101000a81548173ffffffffffffffffffffffffffffffffffffffff021916908373ffffffffffffffffffffffffffffffffffffffff160217905550505050620008ea565b6000604051905090565b600080fd5b600080fd5b6000819050919050565b62000164816200014f565b81146200017057600080fd5b50565b600081519050620001848162000159565b92915050565b600080fd5b600080fd5b6000601f19601f8301169050919050565b7f4e487b7100000000000000000000000000000000000000000000000000000000600052604160045260246000fd5b620001df8262000194565b810181811067ffffffffffffffff82111715620002015762000200620001a5565b5b80604052505050565b6000620002166200013b565b9050620002248282620001d4565b919050565b600067ffffffffffffffff821115620002475762000246620001a5565b5b620002528262000194565b9050602081019050919050565b60005b838110156200027f57808201518184015260208101905062000262565b60008484015250505050565b6000620002a26200029c8462000229565b6200020a565b905082815260208101848484011115620002c157620002c06200018f565b5b620002ce8482856200025f565b509392505050565b600082601f830112620002ee57620002ed6200018a565b5b8151620003008482602086016200028b565b91505092915050565b60008060006060848603121562000325576200032462000145565b5b6000620003358682870162000173565b935050602084015167ffffffffffffffff8111156200035957620003586200014a565b5b6200036786828701620002d6565b925050604084015167ffffffffffffffff8111156200038b576200038a6200014a565b5b6200039986828701620002d6565b9150509250925092565b7f4e487b7100000000000000000000000000000000000000000000000000000000600052601160045260246000fd5b60008160011c9050919050565b6000808291508390505b60018511156200043157808604811115620004095762000408620003a3565b5b6001851615620004195780820291505b80810290506200042985620003d2565b9450620003e9565b94509492505050565b6000826200044c57600190506200051f565b816200045c57600090506200051f565b81600181146200047557600281146200048057620004b6565b60019150506200051f565b60ff841115620004955762000494620003a3565b5b8360020a915084821115620004af57620004ae620003a3565b5b506200051f565b5060208310610133831016604e8410600b8410161715620004f05782820a905083811115620004ea57620004e9620003a3565b5b6200051f565b620004ff8484846001620003df565b92509050818404811115620005195762000518620003a3565b5b81810290505b9392505050565b600062000533826200014f565b915062000540836200014f565b92506200056f7fffffffffffffffffffffffffffffffffffffffffffffffffffffffffffffffff84846200043a565b905092915050565b600062000584826200014f565b915062000591836200014f565b9250828202620005a1816200014f565b91508282048414831517620005bb57620005ba620003a3565b5b5092915050565b600081519050919050565b7f4e487b7100000000000000000000000000000000000000000000000000000000600052602260045260246000fd5b600060028204905060018216806200061557607f821691505b6020821081036200062b576200062a620005cd565b5b50919050565b60008190508160005260206000209050919050565b60006020601f8301049050919050565b600082821b905092915050565b600060088302620006957fffffffffffffffffffffffffffffffffffffffffffffffffffffffffffffffff8262000656565b620006a1868362000656565b95508019841693508086168417925050509392505050565b6000819050919050565b6000620006e4620006de620006d8846200014f565b620006b9565b6200014f565b9050919050565b6000819050919050565b6200070083620006c3565b620007186200070f82620006eb565b84845462000663565b825550505050565b600090565b6200072f62000720565b6200073c818484620006f5565b505050565b5b8181101562000764576200075860008262000725565b60018101905062000742565b5050565b601f821115620007b3576200077d8162000631565b620007888462000646565b8101602085101562000798578190505b620007b0620007a78562000646565b83018262000741565b50505b505050565b600082821c905092915050565b6000620007d860001984600802620007b8565b1980831691505092915050565b6000620007f38383620007c5565b9150826002028217905092915050565b6200080e82620005c2565b67ffffffffffffffff8111156200082a5762000829620001a5565b5b620008368254620005fc565b6200084382828562000768565b600060209050601f8311600181146200087b576000841562000866578287015190505b620008728582620007e5565b865550620008e2565b601f1984166200088b8662000631565b60005b82811015620008b5578489015182556001820191506020850194506020810190506200088e565b86831015620008d55784890151620008d1601f891682620007c5565b8355505b6001600288020188555050505b505050505050565b61156780620008fa6000396000f3fe608060405234801561001057600080fd5b50600436106100ea5760003560e01c806370a082311161008c57806395d89b411161006657806395d89b4114610275578063b7760c8f14610293578063dd62ed3e146102c3578063febe4909146102f3576100ea565b806370a08231146101f757806379cc6790146102275780638da5cb5b14610257576100ea565b80632af4c31e116100c85780632af4c31e1461015b578063313ce5671461018b57806342966c68146101a95780635258a835146101d9576100ea565b806306fdde03146100ef5780631103bf441461010d57806318160ddd1461013d575b600080fd5b6100f7610323565b6040516101049190611128565b60405180910390f35b610127600480360381019061012291906111e3565b6103b1565b6040516101349190611251565b60405180910390f35b610145610512565b604051610152919061127b565b60405180910390f35b61017560048036038101906101709190611296565b610518565b6040516101829190611251565b60405180910390f35b6101936106d4565b6040516101a091906112df565b60405180910390f35b6101c360048036038101906101be91906112fa565b6106e7565b6040516101d09190611251565b60405180910390f35b6101e1610828565b6040516101ee9190611251565b60405180910390f35b610211600480360381019061020c9190611296565b61097d565b60405161021e919061127b565b60405180910390f35b610241600480360381019061023c9190611327565b610995565b60405161024e9190611251565b60405180910390f35b61025f610c20565b60405161026c9190611376565b60405180910390f35b61027d610c4a565b60405161028a9190611128565b60405180910390f35b6102ad60048036038101906102a89190611391565b610cd8565b6040516102ba9190611251565b60405180910390f35b6102dd60048036038101906102d891906113d1565b610cef565b6040516102ea919061127b565b60405180910390f35b61030d60048036038101906103089190611391565b610d14565b60405161031a9190611251565b60405180910390f35b6000805461033090611440565b80601f016020809104026020016040519081016040528092919081815260200182805461035c90611440565b80156103a95780601f1061037e576101008083540402835291602001916103a9565b820191906000526020600020905b81548152906001019060200180831161038c57829003601f168201915b505050505081565b600083600660008573ffffffffffffffffffffffffffffffffffffffff1673ffffffffffffffffffffffffffffffffffffffff16815260200190815260200160002060003373ffffffffffffffffffffffffffffffffffffffff1673ffffffffffffffffffffffffffffffffffffffff168152602001908152602001600020541015610469576040517fbf300a1200000000000000000000000000000000000000000000000000000000815260040160405180910390fd5b83600660008573ffffffffffffffffffffffffffffffffffffffff1673ffffffffffffffffffffffffffffffffffffffff16815260200190815260200160002060003373ffffffffffffffffffffffffffffffffffffffff1673ffffffffffffffffffffffffffffffffffffffff16815260200190815260200160002060008282546104f591906114a0565b92505081905550610507848484610e6b565b600190509392505050565b60035481565b6000600460009054906101000a900473ffffffffffffffffffffffffffffffffffffffff1673ffffffffffffffffffffffffffffffffffffffff163373ffffffffffffffffffffffffffffffffffffffff16146105a1576040517f348ce24300000000000000000000000000000000000000000000000000000000815260040160405180910390fd5b600073ffffffffffffffffffffffffffffffffffffffff168273ffffffffffffffffffffffffffffffffffffffff1603610607576040517f52a2b6c300000000000000000000000000000000000000000000000000000000815260040160405180910390fd5b6000600460009054906101000a900473ffffffffffffffffffffffffffffffffffffffff16905082600460006101000a81548173ffffffffffffffffffffffffffffffffffffffff021916908373ffffffffffffffffffffffffffffffffffffffff1602179055507f8be0079c531659141344cd1fd0a4f28419497f9722a3daafe3b4186f6b6457e081600460009054906101000a900473ffffffffffffffffffffffffffffffffffffffff166040516106c29291906114d4565b60405180910390a16001915050919050565b600260009054906101000a900460ff1681565b600081600560003373ffffffffffffffffffffffffffffffffffffffff1673ffffffffffffffffffffffffffffffffffffffff168152602001908152602001600020541015610762576040517f6e9dd6de00000000000000000000000000000000000000000000000000000000815260040160405180910390fd5b81600560003373ffffffffffffffffffffffffffffffffffffffff1673ffffffffffffffffffffffffffffffffffffffff16815260200190815260200160002060008282546107b191906114a0565b9250508190555081600360008282546107ca91906114a0565b925050819055503373ffffffffffffffffffffffffffffffffffffffff167fcc16f5dbb4873280815c1ee09dbd06736cffcc184412cf7a71a0fdb75d397ca583604051610817919061127b565b60405180910390a260019050919050565b6000600460009054906101000a900473ffffffffffffffffffffffffffffffffffffffff1673ffffffffffffffffffffffffffffffffffffffff163373ffffffffffffffffffffffffffffffffffffffff16146108b1576040517f348ce24300000000000000000000000000000000000000000000000000000000815260040160405180910390fd5b6000600460009054906101000a900473ffffffffffffffffffffffffffffffffffffffff1690506000600460006101000a81548173ffffffffffffffffffffffffffffffffffffffff021916908373ffffffffffffffffffffffffffffffffffffffff1602179055507f8be0079c531659141344cd1fd0a4f28419497f9722a3daafe3b4186f6b6457e081600460009054906101000a900473ffffffffffffffffffffffffffffffffffffffff1660405161096d9291906114d4565b60405180910390a1600191505090565b60056020528060005260406000206000915090505481565b600081600560008573ffffffffffffffffffffffffffffffffffffffff1673ffffffffffffffffffffffffffffffffffffffff168152602001908152602001600020541015610a10576040517f6e9dd6de00000000000000000000000000000000000000000000000000000000815260040160405180910390fd5b81600660008573ffffffffffffffffffffffffffffffffffffffff1673ffffffffffffffffffffffffffffffffffffffff16815260200190815260200160002060003373ffffffffffffffffffffffffffffffffffffffff1673ffffffffffffffffffffffffffffffffffffffff168152602001908152602001600020541015610ac6576040517fbf300a1200000000000000000000000000000000000000000000000000000000815260040160405180910390fd5b81600560008573ffffffffffffffffffffffffffffffffffffffff1673ffffffffffffffffffffffffffffffffffffffff1681526020019081526020016000206000828254610b1591906114a0565b9250508190555081600660008573ffffffffffffffffffffffffffffffffffffffff1673ffffffffffffffffffffffffffffffffffffffff16815260200190815260200160002060003373ffffffffffffffffffffffffffffffffffffffff1673ffffffffffffffffffffffffffffffffffffffff1681526020019081526020016000206000828254610ba891906114a0565b925050819055508160036000828254610bc191906114a0565b925050819055508273ffffffffffffffffffffffffffffffffffffffff167fcc16f5dbb4873280815c1ee09dbd06736cffcc184412cf7a71a0fdb75d397ca583604051610c0e919061127b565b60405180910390a26001905092915050565b6000600460009054906101000a900473ffffffffffffffffffffffffffffffffffffffff16905090565b60018054610c5790611440565b80601f0160208091040260200160405190810160405280929190818152602001828054610c8390611440565b8015610cd05780601f10610ca557610100808354040283529160200191610cd0565b820191906000526020600020905b815481529060010190602001808311610cb357829003601f168201915b505050505081565b6000610ce5833384610e6b565b6001905092915050565b6006602052816000526040600020602052806000526040600020600091509150505481565b60008073ffffffffffffffffffffffffffffffffffffffff168273ffffffffffffffffffffffffffffffffffffffff1603610d7b576040517f52a2b6c300000000000000000000000000000000000000000000000000000000815260040160405180910390fd5b82600660003373ffffffffffffffffffffffffffffffffffffffff1673ffffffffffffffffffffffffffffffffffffffff16815260200190815260200160002060008473ffffffffffffffffffffffffffffffffffffffff1673ffffffffffffffffffffffffffffffffffffffff168152602001908152602001600020819055508173ffffffffffffffffffffffffffffffffffffffff163373ffffffffffffffffffffffffffffffffffffffff167f7dc9c8b9a51a8c0b7b740441732d4ea81ba2a5c6b3958df98c9dc8396f8f2e4385604051610e59919061127b565b60405180910390a36001905092915050565b600073ffffffffffffffffffffffffffffffffffffffff168173ffffffffffffffffffffffffffffffffffffffff161480610ed25750600073ffffffffffffffffffffffffffffffffffffffff168273ffffffffffffffffffffffffffffffffffffffff16145b15610f09576040517f52a2b6c300000000000000000000000000000000000000000000000000000000815260040160405180910390fd5b82600560008473ffffffffffffffffffffffffffffffffffffffff1673ffffffffffffffffffffffffffffffffffffffff168152602001908152602001600020541015610f82576040517f6e9dd6de00000000000000000000000000000000000000000000000000000000815260040160405180910390fd5b82600560008373ffffffffffffffffffffffffffffffffffffffff1673ffffffffffffffffffffffffffffffffffffffff1681526020019081526020016000206000828254610fd191906114fd565b9250508190555082600560008473ffffffffffffffffffffffffffffffffffffffff1673ffffffffffffffffffffffffffffffffffffffff168152602001908152602001600020600082825461102791906114a0565b925050819055508073ffffffffffffffffffffffffffffffffffffffff168273ffffffffffffffffffffffffffffffffffffffff167f0a429aba3d89849a2db0153e4534d95c46a1d83c8109d73893f55ebc44010ff48560405161108b919061127b565b60405180910390a3505050565b600081519050919050565b600082825260208201905092915050565b60005b838110156110d25780820151818401526020810190506110b7565b60008484015250505050565b6000601f19601f8301169050919050565b60006110fa82611098565b61110481856110a3565b93506111148185602086016110b4565b61111d816110de565b840191505092915050565b6000602082019050818103600083015261114281846110ef565b905092915050565b600080fd5b6000819050919050565b6111628161114f565b811461116d57600080fd5b50565b60008135905061117f81611159565b92915050565b600073ffffffffffffffffffffffffffffffffffffffff82169050919050565b60006111b082611185565b9050919050565b6111c0816111a5565b81146111cb57600080fd5b50565b6000813590506111dd816111b7565b92915050565b6000806000606084860312156111fc576111fb61114a565b5b600061120a86828701611170565b935050602061121b868287016111ce565b925050604061122c868287016111ce565b9150509250925092565b60008115159050919050565b61124b81611236565b82525050565b60006020820190506112666000830184611242565b92915050565b6112758161114f565b82525050565b6000602082019050611290600083018461126c565b92915050565b6000602082840312156112ac576112ab61114a565b5b60006112ba848285016111ce565b91505092915050565b600060ff82169050919050565b6112d9816112c3565b82525050565b60006020820190506112f460008301846112d0565b92915050565b6000602082840312156113105761130f61114a565b5b600061131e84828501611170565b91505092915050565b6000806040838503121561133e5761133d61114a565b5b600061134c858286016111ce565b925050602061135d85828601611170565b9150509250929050565b611370816111a5565b82525050565b600060208201905061138b6000830184611367565b92915050565b600080604083850312156113a8576113a761114a565b5b60006113b685828601611170565b92505060206113c7858286016111ce565b9150509250929050565b600080604083850312156113e8576113e761114a565b5b60006113f6858286016111ce565b9250506020611407858286016111ce565b9150509250929050565b7f4e487b7100000000000000000000000000000000000000000000000000000000600052602260045260246000fd5b6000600282049050600182168061145857607f821691505b60208210810361146b5761146a611411565b5b50919050565b7f4e487b7100000000000000000000000000000000000000000000000000000000600052601160045260246000fd5b60006114ab8261114f565b91506114b68361114f565b92508282039050818111156114ce576114cd611471565b5b92915050565b60006040820190506114e96000830185611367565b6114f66020830184611367565b9392505050565b60006115088261114f565b91506115138361114f565b925082820190508082111561152b5761152a611471565b5b9291505056fea2646970667358221220bc9c2600b843a0b05f8e9dcbbbcfbb7d2c2592fe2bf6890fa1ffc89dde4303fb64736f6c63430008110033",
  "devdoc": {
    "kind": "dev",
    "methods": {},
    "version": 1
  },
  "userdoc": {
    "kind": "user",
    "methods": {
      "approve(uint256,address)": {
        "notice": "Set allowance for other address Allows `_spender` to spend no more than `_value` tokens on your behalf"
      },
      "transferFrom(uint256,address,address)": {
        "notice": "Transfer tokens from other address Send `_value` tokens to `_to` on behalf of `_from`"
      }
    },
    "version": 1
  },
  "storageLayout": {
    "storage": [
      {
        "astId": 11,
        "contract": "contracts/Token.sol:TokenERC20",
        "label": "name",
        "offset": 0,
        "slot": "0",
        "type": "t_string_storage"
      },
      {
        "astId": 13,
        "contract": "contracts/Token.sol:TokenERC20",
        "label": "symbol",
        "offset": 0,
        "slot": "1",
        "type": "t_string_storage"
      },
      {
        "astId": 16,
        "contract": "contracts/Token.sol:TokenERC20",
        "label": "decimals",
        "offset": 0,
        "slot": "2",
        "type": "t_uint8"
      },
      {
        "astId": 18,
        "contract": "contracts/Token.sol:TokenERC20",
        "label": "totalSupply",
        "offset": 0,
        "slot": "3",
        "type": "t_uint256"
      },
      {
        "astId": 20,
        "contract": "contracts/Token.sol:TokenERC20",
        "label": "_owner",
        "offset": 0,
        "slot": "4",
        "type": "t_address"
      },
      {
        "astId": 24,
        "contract": "contracts/Token.sol:TokenERC20",
        "label": "balanceOf",
        "offset": 0,
        "slot": "5",
        "type": "t_mapping(t_address,t_uint256)"
      },
      {
        "astId": 30,
        "contract": "contracts/Token.sol:TokenERC20",
        "label": "allowance",
        "offset": 0,
        "slot": "6",
        "type": "t_mapping(t_address,t_mapping(t_address,t_uint256))"
      }
    ],
    "types": {
      "t_address": {
        "encoding": "inplace",
        "label": "address",
        "numberOfBytes": "20"
      },
      "t_mapping(t_address,t_mapping(t_address,t_uint256))": {
        "encoding": "mapping",
        "key": "t_address",
        "label": "mapping(address => mapping(address => uint256))",
        "numberOfBytes": "32",
        "value": "t_mapping(t_address,t_uint256)"
      },
      "t_mapping(t_address,t_uint256)": {
        "encoding": "mapping",
        "key": "t_address",
        "label": "mapping(address => uint256)",
        "numberOfBytes": "32",
        "value": "t_uint256"
      },
      "t_string_storage": {
        "encoding": "bytes",
        "label": "string",
        "numberOfBytes": "32"
      },
      "t_uint256": {
        "encoding": "inplace",
        "label": "uint256",
        "numberOfBytes": "32"
      },
      "t_uint8": {
        "encoding": "inplace",
        "label": "uint8",
        "numberOfBytes": "1"
      }
    }
  }
}